{
  "_format": "hh-sol-artifact-1",
  "contractName": "Bet",
  "sourceName": "contracts/Bet.sol",
  "abi": [
    {
      "inputs": [],
      "stateMutability": "nonpayable",
      "type": "constructor"
    },
    {
      "inputs": [],
      "name": "ActiveBets",
      "outputs": [
        {
          "components": [
            {
              "internalType": "address",
              "name": "creator_address",
              "type": "address"
            },
            {
              "internalType": "uint256",
              "name": "ammount",
              "type": "uint256"
            },
            {
              "internalType": "uint256",
              "name": "timestamp",
              "type": "uint256"
            },
            {
              "internalType": "bool",
              "name": "active",
              "type": "bool"
            },
            {
              "internalType": "address",
              "name": "winner",
              "type": "address"
            }
          ],
          "internalType": "struct Bet.BetStruct[]",
          "name": "",
          "type": "tuple[]"
        }
      ],
      "stateMutability": "view",
      "type": "function"
    },
    {
      "inputs": [
        {
          "internalType": "uint256",
          "name": "ammount",
          "type": "uint256"
        }
      ],
      "name": "createBet",
      "outputs": [],
      "stateMutability": "nonpayable",
      "type": "function"
    },
    {
      "inputs": [],
      "name": "deleteBet",
      "outputs": [],
      "stateMutability": "nonpayable",
      "type": "function"
    },
    {
      "inputs": [],
      "name": "depostitEth",
      "outputs": [],
      "stateMutability": "payable",
      "type": "function"
    },
    {
      "inputs": [],
      "name": "getBalance",
      "outputs": [
        {
          "internalType": "uint256",
          "name": "",
          "type": "uint256"
        }
      ],
      "stateMutability": "view",
      "type": "function"
    },
    {
      "inputs": [],
      "name": "getCount",
      "outputs": [
        {
          "internalType": "uint256",
          "name": "",
          "type": "uint256"
        }
      ],
      "stateMutability": "view",
      "type": "function"
    },
    {
      "inputs": [],
      "name": "getMyBet",
      "outputs": [
        {
          "components": [
            {
              "internalType": "address",
              "name": "creator_address",
              "type": "address"
            },
            {
              "internalType": "uint256",
              "name": "ammount",
              "type": "uint256"
            },
            {
              "internalType": "uint256",
              "name": "timestamp",
              "type": "uint256"
            },
            {
              "internalType": "bool",
              "name": "active",
              "type": "bool"
            },
            {
              "internalType": "address",
              "name": "winner",
              "type": "address"
            }
          ],
          "internalType": "struct Bet.BetStruct",
          "name": "",
          "type": "tuple"
        }
      ],
      "stateMutability": "view",
      "type": "function"
    },
    {
      "inputs": [],
      "name": "getPastBets",
      "outputs": [
        {
          "components": [
            {
              "internalType": "address",
              "name": "creator_address",
              "type": "address"
            },
            {
              "internalType": "uint256",
              "name": "ammount",
              "type": "uint256"
            },
            {
              "internalType": "uint256",
              "name": "timestamp",
              "type": "uint256"
            },
            {
              "internalType": "bool",
              "name": "active",
              "type": "bool"
            },
            {
              "internalType": "address",
              "name": "winner",
              "type": "address"
            }
          ],
          "internalType": "struct Bet.BetStruct[]",
          "name": "",
          "type": "tuple[]"
        }
      ],
      "stateMutability": "view",
      "type": "function"
    },
    {
      "inputs": [
        {
          "internalType": "address",
          "name": "creator_address",
          "type": "address"
        }
      ],
      "name": "joinBet",
      "outputs": [],
      "stateMutability": "nonpayable",
      "type": "function"
    },
    {
      "inputs": [
        {
          "internalType": "uint256",
          "name": "withdrawAmount",
          "type": "uint256"
        }
      ],
      "name": "withdrawEth",
      "outputs": [],
      "stateMutability": "payable",
      "type": "function"
    }
  ],
  "bytecode": "0x608060405260c860015534801561001557600080fd5b50600080819055506122108061002c6000396000f3fe6080604052600436106100915760003560e01c8063ac793a6011610059578063ac793a6014610159578063b24b05f814610182578063c311d049146101ad578063c7d8cdda146101c9578063ebb02f63146101f257610091565b806312065fe0146100965780632f25b146146100c157806356497ad0146100ec5780639d1c618814610103578063a87d942c1461012e575b600080fd5b3480156100a257600080fd5b506100ab6101fc565b6040516100b89190611f39565b60405180910390f35b3480156100cd57600080fd5b506100d6610243565b6040516100e39190611dbc565b60405180910390f35b3480156100f857600080fd5b50610101610673565b005b34801561010f57600080fd5b5061011861095e565b6040516101259190611dbc565b60405180910390f35b34801561013a57600080fd5b50610143610a98565b6040516101509190611f39565b60405180910390f35b34801561016557600080fd5b50610180600480360381019061017b919061193d565b610aa1565b005b34801561018e57600080fd5b50610197610dc7565b6040516101a49190611f1e565b60405180910390f35b6101c760048036038101906101c2919061193d565b610ef9565b005b3480156101d557600080fd5b506101f060048036038101906101eb9190611914565b6110ae565b005b6101fa611686565b005b6000600460003373ffffffffffffffffffffffffffffffffffffffff1673ffffffffffffffffffffffffffffffffffffffff16815260200190815260200160002054905090565b60606000805b60058054905081101561033857600115156002600060058481548110610298577f4e487b7100000000000000000000000000000000000000000000000000000000600052603260045260246000fd5b9060005260206000200160009054906101000a900473ffffffffffffffffffffffffffffffffffffffff1673ffffffffffffffffffffffffffffffffffffffff1673ffffffffffffffffffffffffffffffffffffffff16815260200190815260200160002060030160009054906101000a900460ff1615151415610325578180610321906120ca565b9250505b8080610330906120ca565b915050610249565b506000808267ffffffffffffffff81111561037c577f4e487b7100000000000000000000000000000000000000000000000000000000600052604160045260246000fd5b6040519080825280602002602001820160405280156103b557816020015b6103a261188d565b81526020019060019003908161039a5790505b50905060005b6005805490508110156106695760011515600260006005848154811061040a577f4e487b7100000000000000000000000000000000000000000000000000000000600052603260045260246000fd5b9060005260206000200160009054906101000a900473ffffffffffffffffffffffffffffffffffffffff1673ffffffffffffffffffffffffffffffffffffffff1673ffffffffffffffffffffffffffffffffffffffff16815260200190815260200160002060030160009054906101000a900460ff16151514156106565760026000600583815481106104c6577f4e487b7100000000000000000000000000000000000000000000000000000000600052603260045260246000fd5b9060005260206000200160009054906101000a900473ffffffffffffffffffffffffffffffffffffffff1673ffffffffffffffffffffffffffffffffffffffff1673ffffffffffffffffffffffffffffffffffffffff1681526020019081526020016000206040518060a00160405290816000820160009054906101000a900473ffffffffffffffffffffffffffffffffffffffff1673ffffffffffffffffffffffffffffffffffffffff1673ffffffffffffffffffffffffffffffffffffffff16815260200160018201548152602001600282015481526020016003820160009054906101000a900460ff161515151581526020016003820160019054906101000a900473ffffffffffffffffffffffffffffffffffffffff1673ffffffffffffffffffffffffffffffffffffffff1673ffffffffffffffffffffffffffffffffffffffff168152505082848151811061064a577f4e487b7100000000000000000000000000000000000000000000000000000000600052603260045260246000fd5b60200260200101819052505b8080610661906120ca565b9150506103bb565b5080935050505090565b6001600260003373ffffffffffffffffffffffffffffffffffffffff1673ffffffffffffffffffffffffffffffffffffffff16815260200190815260200160002060030160006101000a81548160ff021916908315150217905561070c576040517f08c379a000000000000000000000000000000000000000000000000000000000815260040161070390611dde565b60405180910390fd5b600260003373ffffffffffffffffffffffffffffffffffffffff1673ffffffffffffffffffffffffffffffffffffffff16815260200190815260200160002060010154600460003373ffffffffffffffffffffffffffffffffffffffff1673ffffffffffffffffffffffffffffffffffffffff168152602001908152602001600020600082825461079d9190611f9e565b925050819055506040518060a001604052803373ffffffffffffffffffffffffffffffffffffffff1681526020016000815260200160008152602001600015158152602001600073ffffffffffffffffffffffffffffffffffffffff16815250600260003373ffffffffffffffffffffffffffffffffffffffff1673ffffffffffffffffffffffffffffffffffffffff16815260200190815260200160002060008201518160000160006101000a81548173ffffffffffffffffffffffffffffffffffffffff021916908373ffffffffffffffffffffffffffffffffffffffff160217905550602082015181600101556040820151816002015560608201518160030160006101000a81548160ff02191690831515021790555060808201518160030160016101000a81548173ffffffffffffffffffffffffffffffffffffffff021916908373ffffffffffffffffffffffffffffffffffffffff1602179055509050506000600260003373ffffffffffffffffffffffffffffffffffffffff1673ffffffffffffffffffffffffffffffffffffffff16815260200190815260200160002060030160006101000a81548160ff021916908315150217905550565b60606007805480602002602001604051908101604052809291908181526020016000905b82821015610a8f57838290600052602060002090600402016040518060a00160405290816000820160009054906101000a900473ffffffffffffffffffffffffffffffffffffffff1673ffffffffffffffffffffffffffffffffffffffff1673ffffffffffffffffffffffffffffffffffffffff16815260200160018201548152602001600282015481526020016003820160009054906101000a900460ff161515151581526020016003820160019054906101000a900473ffffffffffffffffffffffffffffffffffffffff1673ffffffffffffffffffffffffffffffffffffffff1673ffffffffffffffffffffffffffffffffffffffff168152505081526020019060010190610982565b50505050905090565b60008054905090565b60008111610ae4576040517f08c379a0000000000000000000000000000000000000000000000000000000008152600401610adb90611e9e565b60405180910390fd5b80600460003373ffffffffffffffffffffffffffffffffffffffff1673ffffffffffffffffffffffffffffffffffffffff168152602001908152602001600020541015610b66576040517f08c379a0000000000000000000000000000000000000000000000000000000008152600401610b5d90611e5e565b60405180910390fd5b60001515600260003373ffffffffffffffffffffffffffffffffffffffff1673ffffffffffffffffffffffffffffffffffffffff16815260200190815260200160002060030160009054906101000a900460ff16151514610bfc576040517f08c379a0000000000000000000000000000000000000000000000000000000008152600401610bf390611ebe565b60405180910390fd5b80600460003373ffffffffffffffffffffffffffffffffffffffff1673ffffffffffffffffffffffffffffffffffffffff1681526020019081526020016000206000828254610c4b919061204e565b925050819055506040518060a001604052803373ffffffffffffffffffffffffffffffffffffffff168152602001828152602001428152602001600115158152602001600073ffffffffffffffffffffffffffffffffffffffff16815250600260003373ffffffffffffffffffffffffffffffffffffffff1673ffffffffffffffffffffffffffffffffffffffff16815260200190815260200160002060008201518160000160006101000a81548173ffffffffffffffffffffffffffffffffffffffff021916908373ffffffffffffffffffffffffffffffffffffffff160217905550602082015181600101556040820151816002015560608201518160030160006101000a81548160ff02191690831515021790555060808201518160030160016101000a81548173ffffffffffffffffffffffffffffffffffffffff021916908373ffffffffffffffffffffffffffffffffffffffff160217905550905050600080815480929190610dbf906120ca565b919050555050565b610dcf61188d565b600260003373ffffffffffffffffffffffffffffffffffffffff1673ffffffffffffffffffffffffffffffffffffffff1681526020019081526020016000206040518060a00160405290816000820160009054906101000a900473ffffffffffffffffffffffffffffffffffffffff1673ffffffffffffffffffffffffffffffffffffffff1673ffffffffffffffffffffffffffffffffffffffff16815260200160018201548152602001600282015481526020016003820160009054906101000a900460ff161515151581526020016003820160019054906101000a900473ffffffffffffffffffffffffffffffffffffffff1673ffffffffffffffffffffffffffffffffffffffff1673ffffffffffffffffffffffffffffffffffffffff1681525050905090565b60011515600360003373ffffffffffffffffffffffffffffffffffffffff1673ffffffffffffffffffffffffffffffffffffffff16815260200190815260200160002060009054906101000a900460ff16151514610f8c576040517f08c379a0000000000000000000000000000000000000000000000000000000008152600401610f8390611e3e565b60405180910390fd5b80600460003373ffffffffffffffffffffffffffffffffffffffff1673ffffffffffffffffffffffffffffffffffffffff16815260200190815260200160002054101561100e576040517f08c379a000000000000000000000000000000000000000000000000000000000815260040161100590611ede565b60405180910390fd5b80600460003373ffffffffffffffffffffffffffffffffffffffff1673ffffffffffffffffffffffffffffffffffffffff168152602001908152602001600020600082825461105d919061204e565b925050819055503373ffffffffffffffffffffffffffffffffffffffff166108fc829081150290604051600060405180830381858888f193505050501580156110aa573d6000803e3d6000fd5b5050565b6000600260008373ffffffffffffffffffffffffffffffffffffffff1673ffffffffffffffffffffffffffffffffffffffff16815260200190815260200160002060010154600460003373ffffffffffffffffffffffffffffffffffffffff1673ffffffffffffffffffffffffffffffffffffffff168152602001908152602001600020541015611174576040517f08c379a000000000000000000000000000000000000000000000000000000000815260040161116b90611efe565b60405180910390fd5b60011515600260008473ffffffffffffffffffffffffffffffffffffffff1673ffffffffffffffffffffffffffffffffffffffff16815260200190815260200160002060030160009054906101000a900460ff1615151461120a576040517f08c379a000000000000000000000000000000000000000000000000000000000815260040161120190611e7e565b60405180910390fd5b8173ffffffffffffffffffffffffffffffffffffffff163373ffffffffffffffffffffffffffffffffffffffff161415611279576040517f08c379a000000000000000000000000000000000000000000000000000000000815260040161127090611dfe565b60405180910390fd5b600260008373ffffffffffffffffffffffffffffffffffffffff1673ffffffffffffffffffffffffffffffffffffffff16815260200190815260200160002060010154600460003373ffffffffffffffffffffffffffffffffffffffff1673ffffffffffffffffffffffffffffffffffffffff168152602001908152602001600020600082825461130a919061204e565b92505081905550603161131b611836565b10156113295733905061132d565b8190505b60028060008473ffffffffffffffffffffffffffffffffffffffff1673ffffffffffffffffffffffffffffffffffffffff1681526020019081526020016000206001015461137b9190611ff4565b600460008373ffffffffffffffffffffffffffffffffffffffff1673ffffffffffffffffffffffffffffffffffffffff16815260200190815260200160002060008282546113c99190611f9e565b9250508190555080600260008473ffffffffffffffffffffffffffffffffffffffff1673ffffffffffffffffffffffffffffffffffffffff16815260200190815260200160002060030160016101000a81548173ffffffffffffffffffffffffffffffffffffffff021916908373ffffffffffffffffffffffffffffffffffffffff1602179055506000600260008473ffffffffffffffffffffffffffffffffffffffff1673ffffffffffffffffffffffffffffffffffffffff16815260200190815260200160002060030160006101000a81548160ff0219169083151502179055506007600260008473ffffffffffffffffffffffffffffffffffffffff1673ffffffffffffffffffffffffffffffffffffffff16815260200190815260200160002090806001815401808255809150506001900390600052602060002090600402016000909190919091506000820160009054906101000a900473ffffffffffffffffffffffffffffffffffffffff168160000160006101000a81548173ffffffffffffffffffffffffffffffffffffffff021916908373ffffffffffffffffffffffffffffffffffffffff16021790555060018201548160010155600282015481600201556003820160009054906101000a900460ff168160030160006101000a81548160ff0219169083151502179055506003820160019054906101000a900473ffffffffffffffffffffffffffffffffffffffff168160030160016101000a81548173ffffffffffffffffffffffffffffffffffffffff021916908373ffffffffffffffffffffffffffffffffffffffff16021790555050506000600260008473ffffffffffffffffffffffffffffffffffffffff1673ffffffffffffffffffffffffffffffffffffffff16815260200190815260200160002060030160006101000a81548160ff0219169083151502179055505050565b600034116116c9576040517f08c379a00000000000000000000000000000000000000000000000000000000081526004016116c090611e1e565b60405180910390fd5b60001515600360003373ffffffffffffffffffffffffffffffffffffffff1673ffffffffffffffffffffffffffffffffffffffff16815260200190815260200160002060009054906101000a900460ff16151514156117de576005339080600181540180825580915050600190039060005260206000200160009091909190916101000a81548173ffffffffffffffffffffffffffffffffffffffff021916908373ffffffffffffffffffffffffffffffffffffffff1602179055506001600360003373ffffffffffffffffffffffffffffffffffffffff1673ffffffffffffffffffffffffffffffffffffffff16815260200190815260200160002060006101000a81548160ff0219169083151502179055505b34600460003373ffffffffffffffffffffffffffffffffffffffff1673ffffffffffffffffffffffffffffffffffffffff168152602001908152602001600020600082825461182d9190611f9e565b92505081905550565b6000806063611843611856565b61184d919061211d565b90508091505090565b6000444260005460405160200161186f93929190611d7f565b6040516020818303038152906040528051906020012060001c905090565b6040518060a00160405280600073ffffffffffffffffffffffffffffffffffffffff1681526020016000815260200160008152602001600015158152602001600073ffffffffffffffffffffffffffffffffffffffff1681525090565b6000813590506118f9816121ac565b92915050565b60008135905061190e816121c3565b92915050565b60006020828403121561192657600080fd5b6000611934848285016118ea565b91505092915050565b60006020828403121561194f57600080fd5b600061195d848285016118ff565b91505092915050565b60006119728383611c7a565b60a08301905092915050565b61198781612082565b82525050565b600061199882611f64565b6119a28185611f7c565b93506119ad83611f54565b8060005b838110156119de5781516119c58882611966565b97506119d083611f6f565b9250506001810190506119b1565b5085935050505092915050565b6119f481612094565b82525050565b6000611a07602083611f8d565b91507f7573657220646f6573206e6f74206861766520616e20616374697665206265746000830152602082019050919050565b6000611a47601183611f8d565b91507f63616e74206a6f696e206f776e206265740000000000000000000000000000006000830152602082019050919050565b6000611a87601183611f8d565b91507f4e6f2065746820746f206465706f7369740000000000000000000000000000006000830152602082019050919050565b6000611ac7601383611f8d565b91507f7573657220646f6573206e6f74206578697374000000000000000000000000006000830152602082019050919050565b6000611b07601883611f8d565b91507f4e6f7420656e6f75676820657468206465706f736974656400000000000000006000830152602082019050919050565b6000611b47601183611f8d565b91507f6e6f7420616e20616374697665206265740000000000000000000000000000006000830152602082019050919050565b6000611b87601683611f8d565b91507f6d696e696d756d206265742069732032303020776569000000000000000000006000830152602082019050919050565b6000611bc7601783611f8d565b91507f616c7265616479206861766520616374697665206265740000000000000000006000830152602082019050919050565b6000611c07601483611f8d565b91507f496e73756666696369656e742042616c616e63650000000000000000000000006000830152602082019050919050565b6000611c47601b83611f8d565b91507f6e6f7420656e6f7567682065746820746f20636f7665722062657400000000006000830152602082019050919050565b60a082016000820151611c90600085018261197e565b506020820151611ca36020850182611d4a565b506040820151611cb66040850182611d4a565b506060820151611cc960608501826119eb565b506080820151611cdc608085018261197e565b50505050565b60a082016000820151611cf8600085018261197e565b506020820151611d0b6020850182611d4a565b506040820151611d1e6040850182611d4a565b506060820151611d3160608501826119eb565b506080820151611d44608085018261197e565b50505050565b611d53816120c0565b82525050565b611d62816120c0565b82525050565b611d79611d74826120c0565b612113565b82525050565b6000611d8b8286611d68565b602082019150611d9b8285611d68565b602082019150611dab8284611d68565b602082019150819050949350505050565b60006020820190508181036000830152611dd6818461198d565b905092915050565b60006020820190508181036000830152611df7816119fa565b9050919050565b60006020820190508181036000830152611e1781611a3a565b9050919050565b60006020820190508181036000830152611e3781611a7a565b9050919050565b60006020820190508181036000830152611e5781611aba565b9050919050565b60006020820190508181036000830152611e7781611afa565b9050919050565b60006020820190508181036000830152611e9781611b3a565b9050919050565b60006020820190508181036000830152611eb781611b7a565b9050919050565b60006020820190508181036000830152611ed781611bba565b9050919050565b60006020820190508181036000830152611ef781611bfa565b9050919050565b60006020820190508181036000830152611f1781611c3a565b9050919050565b600060a082019050611f336000830184611ce2565b92915050565b6000602082019050611f4e6000830184611d59565b92915050565b6000819050602082019050919050565b600081519050919050565b6000602082019050919050565b600082825260208201905092915050565b600082825260208201905092915050565b6000611fa9826120c0565b9150611fb4836120c0565b9250827fffffffffffffffffffffffffffffffffffffffffffffffffffffffffffffffff03821115611fe957611fe861214e565b5b828201905092915050565b6000611fff826120c0565b915061200a836120c0565b9250817fffffffffffffffffffffffffffffffffffffffffffffffffffffffffffffffff04831182151516156120435761204261214e565b5b828202905092915050565b6000612059826120c0565b9150612064836120c0565b9250828210156120775761207661214e565b5b828203905092915050565b600061208d826120a0565b9050919050565b60008115159050919050565b600073ffffffffffffffffffffffffffffffffffffffff82169050919050565b6000819050919050565b60006120d5826120c0565b91507fffffffffffffffffffffffffffffffffffffffffffffffffffffffffffffffff8214156121085761210761214e565b5b600182019050919050565b6000819050919050565b6000612128826120c0565b9150612133836120c0565b9250826121435761214261217d565b5b828206905092915050565b7f4e487b7100000000000000000000000000000000000000000000000000000000600052601160045260246000fd5b7f4e487b7100000000000000000000000000000000000000000000000000000000600052601260045260246000fd5b6121b581612082565b81146121c057600080fd5b50565b6121cc816120c0565b81146121d757600080fd5b5056fea26469706673582212202931027fc5a5251c57899fe0747b7fe227d1046e6a5b9642739b3e7209edd41764736f6c63430008000033",
  "linkReferences": {},
  "deployedLinkReferences": {}
}